{
  "_format": "hh-sol-artifact-1",
  "contractName": "Lock",
  "sourceName": "contracts/lock.sol",
  "abi": [
    {
      "inputs": [
        {
          "internalType": "address",
          "name": "_user",
          "type": "address"
        },
        {
          "internalType": "string",
          "name": "itemType",
          "type": "string"
        },
        {
          "internalType": "string",
          "name": "data",
          "type": "string"
        }
      ],
      "name": "addItem",
      "outputs": [],
      "stateMutability": "nonpayable",
      "type": "function"
    },
    {
      "inputs": [
        {
          "internalType": "address",
          "name": "user",
          "type": "address"
        }
      ],
      "name": "allow",
      "outputs": [],
      "stateMutability": "nonpayable",
      "type": "function"
    },
    {
      "inputs": [
        {
          "internalType": "address",
          "name": "user",
          "type": "address"
        }
      ],
      "name": "disallow",
      "outputs": [],
      "stateMutability": "nonpayable",
      "type": "function"
    },
    {
      "inputs": [
        {
          "internalType": "address",
          "name": "_user",
          "type": "address"
        }
      ],
      "name": "display",
      "outputs": [
        {
          "components": [
            {
              "internalType": "uint256",
              "name": "id",
              "type": "uint256"
            },
            {
              "internalType": "string",
              "name": "itemType",
              "type": "string"
            },
            {
              "internalType": "string",
              "name": "data",
              "type": "string"
            }
          ],
          "internalType": "struct Lock.Item[]",
          "name": "",
          "type": "tuple[]"
        }
      ],
      "stateMutability": "view",
      "type": "function"
    },
    {
      "inputs": [],
      "name": "shareAccess",
      "outputs": [
        {
          "components": [
            {
              "internalType": "address",
              "name": "user",
              "type": "address"
            },
            {
              "internalType": "bool",
              "name": "access",
              "type": "bool"
            }
          ],
          "internalType": "struct Lock.Access[]",
          "name": "",
          "type": "tuple[]"
        }
      ],
      "stateMutability": "view",
      "type": "function"
    }
  ],
  "bytecode": "0x608060405234801561001057600080fd5b50611984806100206000396000f3fe608060405234801561001057600080fd5b50600436106100575760003560e01c8063a9ed9cb81461005c578063bc8bef8114610078578063d3caea4f14610096578063eb39113f146100b2578063ff9913e8146100e2575b600080fd5b61007660048036038101906100719190610e0f565b6100fe565b005b610080610326565b60405161008d9190610f44565b60405180910390f35b6100b060048036038101906100ab91906110ac565b61042f565b005b6100cc60048036038101906100c79190610e0f565b61068c565b6040516100d991906112e8565b60405180910390f35b6100fc60048036038101906100f79190610e0f565b610956565b005b6000600160003373ffffffffffffffffffffffffffffffffffffffff1673ffffffffffffffffffffffffffffffffffffffff16815260200190815260200160002060008373ffffffffffffffffffffffffffffffffffffffff1673ffffffffffffffffffffffffffffffffffffffff16815260200190815260200160002060006101000a81548160ff02191690831515021790555060005b600260003373ffffffffffffffffffffffffffffffffffffffff1673ffffffffffffffffffffffffffffffffffffffff16815260200190815260200160002080549050811015610321578173ffffffffffffffffffffffffffffffffffffffff16600260003373ffffffffffffffffffffffffffffffffffffffff1673ffffffffffffffffffffffffffffffffffffffff16815260200190815260200160002082815481106102485761024761130a565b5b9060005260206000200160000160009054906101000a900473ffffffffffffffffffffffffffffffffffffffff1673ffffffffffffffffffffffffffffffffffffffff160361030e576000600260003373ffffffffffffffffffffffffffffffffffffffff1673ffffffffffffffffffffffffffffffffffffffff16815260200190815260200160002082815481106102e4576102e361130a565b5b9060005260206000200160000160146101000a81548160ff02191690831515021790555050610323565b808061031990611368565b915050610196565b505b50565b6060600260003373ffffffffffffffffffffffffffffffffffffffff1673ffffffffffffffffffffffffffffffffffffffff168152602001908152602001600020805480602002602001604051908101604052809291908181526020016000905b82821015610426578382906000526020600020016040518060400160405290816000820160009054906101000a900473ffffffffffffffffffffffffffffffffffffffff1673ffffffffffffffffffffffffffffffffffffffff1673ffffffffffffffffffffffffffffffffffffffff1681526020016000820160149054906101000a900460ff16151515158152505081526020019060010190610387565b50505050905090565b60405160200161043e90611407565b6040516020818303038152906040528051906020012082604051602001610465919061144d565b6040516020818303038152906040528051906020012014806104d05750604051602001610491906114b0565b60405160208183030381529060405280519060200120826040516020016104b8919061144d565b60405160208183030381529060405280519060200120145b8061052457506040516020016104e590611511565b604051602081830303815290604052805190602001208260405160200161050c919061144d565b60405160208183030381529060405280519060200120145b80610578575060405160200161053990611572565b6040516020818303038152906040528051906020012082604051602001610560919061144d565b60405160208183030381529060405280519060200120145b6105b7576040517f08c379a00000000000000000000000000000000000000000000000000000000081526004016105ae906115e4565b60405180910390fd5b6000808473ffffffffffffffffffffffffffffffffffffffff1673ffffffffffffffffffffffffffffffffffffffff16815260200190815260200160002060405180606001604052806004600081548092919061061390611368565b91905055815260200184815260200183815250908060018154018082558091505060019003906000526020600020906003020160009091909190915060008201518160000155602082015181600101908161066e9190611810565b5060408201518160020190816106849190611810565b505050505050565b60603373ffffffffffffffffffffffffffffffffffffffff168273ffffffffffffffffffffffffffffffffffffffff16148061074e5750600160008373ffffffffffffffffffffffffffffffffffffffff1673ffffffffffffffffffffffffffffffffffffffff16815260200190815260200160002060003373ffffffffffffffffffffffffffffffffffffffff1673ffffffffffffffffffffffffffffffffffffffff16815260200190815260200160002060009054906101000a900460ff165b61078d576040517f08c379a00000000000000000000000000000000000000000000000000000000081526004016107849061192e565b60405180910390fd5b6000808373ffffffffffffffffffffffffffffffffffffffff1673ffffffffffffffffffffffffffffffffffffffff168152602001908152602001600020805480602002602001604051908101604052809291908181526020016000905b8282101561094b57838290600052602060002090600302016040518060600160405290816000820154815260200160018201805461082890611633565b80601f016020809104026020016040519081016040528092919081815260200182805461085490611633565b80156108a15780601f10610876576101008083540402835291602001916108a1565b820191906000526020600020905b81548152906001019060200180831161088457829003601f168201915b505050505081526020016002820180546108ba90611633565b80601f01602080910402602001604051908101604052809291908181526020018280546108e690611633565b80156109335780601f1061090857610100808354040283529160200191610933565b820191906000526020600020905b81548152906001019060200180831161091657829003601f168201915b505050505081525050815260200190600101906107eb565b505050509050919050565b60018060003373ffffffffffffffffffffffffffffffffffffffff1673ffffffffffffffffffffffffffffffffffffffff16815260200190815260200160002060008373ffffffffffffffffffffffffffffffffffffffff1673ffffffffffffffffffffffffffffffffffffffff16815260200190815260200160002060006101000a81548160ff021916908315150217905550600360003373ffffffffffffffffffffffffffffffffffffffff1673ffffffffffffffffffffffffffffffffffffffff16815260200190815260200160002060008273ffffffffffffffffffffffffffffffffffffffff1673ffffffffffffffffffffffffffffffffffffffff16815260200190815260200160002060009054906101000a900460ff1615610c095760005b600260003373ffffffffffffffffffffffffffffffffffffffff1673ffffffffffffffffffffffffffffffffffffffff16815260200190815260200160002080549050811015610c07578173ffffffffffffffffffffffffffffffffffffffff16600260003373ffffffffffffffffffffffffffffffffffffffff1673ffffffffffffffffffffffffffffffffffffffff1681526020019081526020016000208281548110610b2e57610b2d61130a565b5b9060005260206000200160000160009054906101000a900473ffffffffffffffffffffffffffffffffffffffff1673ffffffffffffffffffffffffffffffffffffffff1603610bf4576001600260003373ffffffffffffffffffffffffffffffffffffffff1673ffffffffffffffffffffffffffffffffffffffff1681526020019081526020016000208281548110610bca57610bc961130a565b5b9060005260206000200160000160146101000a81548160ff02191690831515021790555050610d9a565b8080610bff90611368565b915050610a7c565b505b600260003373ffffffffffffffffffffffffffffffffffffffff1673ffffffffffffffffffffffffffffffffffffffff16815260200190815260200160002060405180604001604052808373ffffffffffffffffffffffffffffffffffffffff168152602001600115158152509080600181540180825580915050600190039060005260206000200160009091909190915060008201518160000160006101000a81548173ffffffffffffffffffffffffffffffffffffffff021916908373ffffffffffffffffffffffffffffffffffffffff16021790555060208201518160000160146101000a81548160ff02191690831515021790555050506001600360003373ffffffffffffffffffffffffffffffffffffffff1673ffffffffffffffffffffffffffffffffffffffff16815260200190815260200160002060008373ffffffffffffffffffffffffffffffffffffffff1673ffffffffffffffffffffffffffffffffffffffff16815260200190815260200160002060006101000a81548160ff0219169083151502179055505b50565b6000604051905090565b600080fd5b600080fd5b600073ffffffffffffffffffffffffffffffffffffffff82169050919050565b6000610ddc82610db1565b9050919050565b610dec81610dd1565b8114610df757600080fd5b50565b600081359050610e0981610de3565b92915050565b600060208284031215610e2557610e24610da7565b5b6000610e3384828501610dfa565b91505092915050565b600081519050919050565b600082825260208201905092915050565b6000819050602082019050919050565b610e7181610dd1565b82525050565b60008115159050919050565b610e8c81610e77565b82525050565b604082016000820151610ea86000850182610e68565b506020820151610ebb6020850182610e83565b50505050565b6000610ecd8383610e92565b60408301905092915050565b6000602082019050919050565b6000610ef182610e3c565b610efb8185610e47565b9350610f0683610e58565b8060005b83811015610f37578151610f1e8882610ec1565b9750610f2983610ed9565b925050600181019050610f0a565b5085935050505092915050565b60006020820190508181036000830152610f5e8184610ee6565b905092915050565b600080fd5b600080fd5b6000601f19601f8301169050919050565b7f4e487b7100000000000000000000000000000000000000000000000000000000600052604160045260246000fd5b610fb982610f70565b810181811067ffffffffffffffff82111715610fd857610fd7610f81565b5b80604052505050565b6000610feb610d9d565b9050610ff78282610fb0565b919050565b600067ffffffffffffffff82111561101757611016610f81565b5b61102082610f70565b9050602081019050919050565b82818337600083830152505050565b600061104f61104a84610ffc565b610fe1565b90508281526020810184848401111561106b5761106a610f6b565b5b61107684828561102d565b509392505050565b600082601f83011261109357611092610f66565b5b81356110a384826020860161103c565b91505092915050565b6000806000606084860312156110c5576110c4610da7565b5b60006110d386828701610dfa565b935050602084013567ffffffffffffffff8111156110f4576110f3610dac565b5b6111008682870161107e565b925050604084013567ffffffffffffffff81111561112157611120610dac565b5b61112d8682870161107e565b9150509250925092565b600081519050919050565b600082825260208201905092915050565b6000819050602082019050919050565b6000819050919050565b61117681611163565b82525050565b600081519050919050565b600082825260208201905092915050565b60005b838110156111b657808201518184015260208101905061119b565b60008484015250505050565b60006111cd8261117c565b6111d78185611187565b93506111e7818560208601611198565b6111f081610f70565b840191505092915050565b6000606083016000830151611213600086018261116d565b506020830151848203602086015261122b82826111c2565b9150506040830151848203604086015261124582826111c2565b9150508091505092915050565b600061125e83836111fb565b905092915050565b6000602082019050919050565b600061127e82611137565b6112888185611142565b93508360208202850161129a85611153565b8060005b858110156112d657848403895281516112b78582611252565b94506112c283611266565b925060208a0199505060018101905061129e565b50829750879550505050505092915050565b600060208201905081810360008301526113028184611273565b905092915050565b7f4e487b7100000000000000000000000000000000000000000000000000000000600052603260045260246000fd5b7f4e487b7100000000000000000000000000000000000000000000000000000000600052601160045260246000fd5b600061137382611163565b91507fffffffffffffffffffffffffffffffffffffffffffffffffffffffffffffffff82036113a5576113a4611339565b5b600182019050919050565b600081905092915050565b7f7064660000000000000000000000000000000000000000000000000000000000600082015250565b60006113f16003836113b0565b91506113fc826113bb565b600382019050919050565b6000611412826113e4565b9150819050919050565b60006114278261117c565b61143181856113b0565b9350611441818560208601611198565b80840191505092915050565b6000611459828461141c565b915081905092915050565b7f666f6c6465720000000000000000000000000000000000000000000000000000600082015250565b600061149a6006836113b0565b91506114a582611464565b600682019050919050565b60006114bb8261148d565b9150819050919050565b7f696d616765000000000000000000000000000000000000000000000000000000600082015250565b60006114fb6005836113b0565b9150611506826114c5565b600582019050919050565b600061151c826114ee565b9150819050919050565b7f75726c0000000000000000000000000000000000000000000000000000000000600082015250565b600061155c6003836113b0565b915061156782611526565b600382019050919050565b600061157d8261154f565b9150819050919050565b600082825260208201905092915050565b7f496e76616c6964206974656d2074797065000000000000000000000000000000600082015250565b60006115ce601183611587565b91506115d982611598565b602082019050919050565b600060208201905081810360008301526115fd816115c1565b9050919050565b7f4e487b7100000000000000000000000000000000000000000000000000000000600052602260045260246000fd5b6000600282049050600182168061164b57607f821691505b60208210810361165e5761165d611604565b5b50919050565b60008190508160005260206000209050919050565b60006020601f8301049050919050565b600082821b905092915050565b6000600883026116c67fffffffffffffffffffffffffffffffffffffffffffffffffffffffffffffffff82611689565b6116d08683611689565b95508019841693508086168417925050509392505050565b6000819050919050565b600061170d61170861170384611163565b6116e8565b611163565b9050919050565b6000819050919050565b611727836116f2565b61173b61173382611714565b848454611696565b825550505050565b600090565b611750611743565b61175b81848461171e565b505050565b5b8181101561177f57611774600082611748565b600181019050611761565b5050565b601f8211156117c45761179581611664565b61179e84611679565b810160208510156117ad578190505b6117c16117b985611679565b830182611760565b50505b505050565b600082821c905092915050565b60006117e7600019846008026117c9565b1980831691505092915050565b600061180083836117d6565b9150826002028217905092915050565b6118198261117c565b67ffffffffffffffff81111561183257611831610f81565b5b61183c8254611633565b611847828285611783565b600060209050601f83116001811461187a5760008415611868578287015190505b61187285826117f4565b8655506118da565b601f19841661188886611664565b60005b828110156118b05784890151825560018201915060208501945060208101905061188b565b868310156118cd57848901516118c9601f8916826117d6565b8355505b6001600288020188555050505b505050505050565b7f596f7520646f206e6f7420686176652061636365737300000000000000000000600082015250565b6000611918601683611587565b9150611923826118e2565b602082019050919050565b600060208201905081810360008301526119478161190b565b905091905056fea2646970667358221220d637bbe550e1430f8099c58290b4f6ec05a6772e4a5b8b3d072df83e4d58576764736f6c63430008130033",
  "linkReferences": {},
  "deployedLinkReferences": {}
}